:020000040000FA
:0400000007EF00F016
:10000800018292ED01F028EF02F0216A000E206EC5
:10001800236A000E226E200E0A6E160E0B6E220E3A
:100028000C6E12EC01F01F6A000E1E6E1E4A1F2A8B
:100038001FBE28EF00F0880E1E5C130E1F58D8A0B4
:1000480028EF00F02AEF00F01AEF00F022502310FA
:10005800D8A431EF00F033EF00F035EF00F097EF60
:1000680000F0235009E1080E225CD8A03EEF00F012
:1000780040EF00F043EF00F0236A070E226EEB0E0C
:10008800046E2F0E056E800E066E5CEC01F075EFA7
:1000980000F0160E076E22C008F03CEC02F097EF55
:1000A80000F0160E076E22C008F05CEC02F097EF25
:1000B80000F0160E076E22C008F04CEC02F097EF25
:1000C80000F0160E076E22C008F098EC00F097EFCB
:1000D80000F0160E026E22C003F08DEC02F097EFCE
:1000E80000F020C014F021C015F01550000AD8B453
:1000F80080EF00F097EF00F01450100AD8B44DEFDD
:1001080000F0300AD8B455EF00F0100AD8B45DEF0B
:1001180000F0700AD8B46DEF00F0100AD8B465EF9B
:1001280000F097EF00F0120007C004F0056ACD0E4A
:10013800066E5CEC01F00750D96EDA6A3C0EDE18E8
:10014800D8A4A9EF00F0ABEF00F0D0EF00F0819C4D
:10015800819E27BEB9EF00F0275009E1020E265C08
:10016800D8A0B9EF00F0BBEF00F0D0EF00F0276A9D
:10017800000E266E81A0C3EF00F0C6EF00F081806C
:10018800C7EF00F0819081A2CCEF00F0CFEF00F034
:100198008182D0EF00F081920750D96EDA6A2D0E75
:1001A800DE18D8A4DAEF00F0DCEF00F001EF01F080
:1001B8008190819227BEEAEF00F0275009E1020EF4
:1001C800265CD8A0EAEF00F0ECEF00F001EF01F0B8
:1001D800276A000E266E81ACF4EF00F0F7EF00F00E
:1001E800818CF8EF00F0819C81AEFDEF00F000EF0C
:1001F80001F0818E01EF01F0819E0750D96EDA6A15
:100208004F0EDE18D8A40BEF01F00DEF01F011EF3F
:1002180001F081908192819C819E120060AE17EF5F
:1002280001F019EF01F057EF01F0D4EC01F00A509A
:10023800D96EDA6A02C0DEFF03C0DDFF0C50D96E4A
:10024800DA6A65CFDFFF660E106E0F0E116E136A45
:10025800000E126E3EEF01F012501024D96E1350AA
:100268001120DA6E0B501224E16EE26ADFCFE7FF4D
:10027800124A132A0C50D96EDA6ADF500D6E0E6AD4
:100288000D50125C1350800A0F6E0E50800A0F58E2
:10029800D8A051EF01F053EF01F030EF01F0609E6C
:1002A800A4905BEF01F00C50D96EDA6ADF6A120095
:1002B800000E026E0650F1EC01F079EF01F0010E2C
:1002C800026E04C0F6FF05C0F7FFF86A050EF76472
:1002D80003D00800F55005D0F6CFE9FFF7CFEAFFC5
:1002E800EF50F1EC01F0044A052A04C0F6FF05C0FE
:1002F800F7FFF86A050EF76403D00800F55005D03B
:10030800F6CFE9FFF7CFEAFFEF500009D8A48FEF47
:1003180001F091EF01F063EF01F012000600F2A482
:1003280098EF01F09AEF01F0B4EF01F0080ED6242F
:10033800D66E000ED720D76EF294244A252A210EB5
:10034800241807E14E0E2518D8A4ADEF01F0AFEF41
:1003580001F0B4EF01F0264A272A256A000E246E20
:1003680001921100939493861F0E6F166F8E800E64
:100378006E18D8A4C2EF01F0C4EF01F0BBEF01F092
:10038800776AE10E706E1B0E716E030E726E0D01B0
:10039800D46B1F0E6F166F50606A608A608C1200F3
:1003A8006150046E056AD89004360536D890043634
:1003B8000536D890043605366238E842070B070B35
:1003C800066E076A04500610086E05500710096E7D
:1003D80008C002F009C003F01200036E02B0F7EF84
:1003E80001F0FAEF01F08282FBEF01F0829203C084
:1003F80083FF82848294958E828082928284829402
:1004080083BE09EF02F00BEF02F002EF02F08290D8
:10041800959E1200956A9450F80B946E8290000E87
:10042800026E020EF1EC01F0000E026E380EF1ECD5
:1004380001F0000E026E0C0EF1EC01F0000E026EDF
:10044800010EF1EC01F01200000EF66E300EF76EA0
:10045800000EF86E0900F5CF28F0276A266A256A8B
:10046800246A01900192000EF86E000181EF02F0FB
:1004780007C004F0056AC00E066E5CEC01F0FD0EC4
:10048800046E2F0E056EC30E066E5CEC01F01200B2
:1004980007C004F0056AC80E066E5CEC01F0FD0E9C
:1004A800046E2F0E056ECC0E066E5CEC01F0120089
:1004B80007C004F0056AC40E066E5CEC01F0FC0E81
:1004C800046E2F0E056EC60E066E5CEC01F012006F
:1004D8000EEC02F089EC02F0B6EC01F0F28EF28C30
:1004E80077EC02F01200D58CD59AD58ED586D76ACE
:1004F800060ED66EF294F28A12006CEC02F009EC49
:1005080000F083EF02F007EF00F0080E936E816AA7
:0405180012001200BB
:102FEA0000535044204752202052504D2020494E31
:072FFA00440020200000014B
:020000040020DA
:08000000FFFFFFFFFFFFFFFF00
:020000040030CA
:0E000000FF071F1FFF8285FF0FC00FE00F409C
:00000001FF
