:020000040000FA
:04000000FEEF17F008
:10284E0094500F09946E120093909392939C939EC2
:10285E00816A12003CEC14F027EC14F04AEC14F0F0
:10286E002BEC14F08BEC14F01200C08EC09AC088C2
:10287E00C096C090C082C094C292C19AC198C46AD8
:10288E00C36AC2801200948E949CAC9CAC8AAC98A5
:10289E00AC96AC84AB8EAB9CAB88B896810EAF6E0B
:1028AE009E989E9A1200000EF66E300EF76E000E77
:1028BE00F86E0900F5CF2CF02B6A2A6A296A286A6D
:1028CE00276A000EF86E0001DBEF16F001C003F070
:1028DE00070E0316050E046ED8900336042E73EF02
:1028EE0014F003500F01426F01C003F002C004F058
:1028FE00D89004320332D89004320332D890043286
:10290E0003320350416F1200939493861F0E6F167D
:10291E006F8E800E6E18D8A497EF14F099EF14F006
:10292E0090EF14F0776AE10E706E1B0E716E030E4F
:10293E00726E0D01D46B1F0E6F166F50606A608A37
:10294E00608C1200076E07C003F0D8900336D89043
:10295E000336C250C30B0310C26EC282C2B2BAEFAC
:10296E0014F0BCEF14F0B5EF14F0C350C4CF03F065
:10297E00046A03C004F0036A0310056E0450066E69
:10298E0005C001F006C002F012000A500B10D8B4B8
:10299E00D3EF14F0D5EF14F0F9EF14F0010E0C6E26
:1029AE00DDEF14F0D8900A360B360C2A0BAEE2EFA0
:1029BE0014F0E4EF14F0D9EF14F00A50085C0B5049
:1029CE000958D8A0EDEF14F0EFEF14F0F3EF14F078
:1029DE000A50085E0B50095AD8900B320A320C2E50
:1029EE00E4EF14F008C008F009C009F01200076AFD
:1029FE00000E066E16EF15F006500224046E0750F8
:102A0E000320056E04C0F6FF05C0F7FF0150062433
:102A1E00D96EDA6A0800F5CFDFFF064A072A06509C
:102A2E000224046E07500320056E04C0F6FF05C095
:102A3E00F7FF0800F5500009D8A428EF15F02AEF8B
:102A4E0015F003EF15F001500624D96EDA6ADF6A2D
:102A5E0012000F01436B446B05C001F006C002F07B
:102A6E006DEC14F008C045FF460E0C6E0F0E0D6E89
:102A7E000F6A000E0E6E52EF15F007500E24D96E2F
:102A8E00DA6A0E500C24E16E0F500D20E26EDFCF8D
:102A9E00E7FF0E4A0F2A0850096E0A6A09500E5CAB
:102AAE000F50800A0B6E0A50800A0B58D8A062EFA6
:102ABE0015F064EF15F044EF15F00F01408712008A
:102ACE00066A000E056E03500410D8B471EF15F0AF
:102ADE0073EF15F09BEF15F0010E076E7BEF15F0FF
:102AEE00D89003360436072A04AE80EF15F082EF35
:102AFE0015F077EF15F0D890053606360350015CC9
:102B0E0004500258D8A08EEF15F090EF15F095EF07
:102B1E0015F00350015E0450025A0580D89004321D
:102B2E000332072E82EF15F005C001F006C002F049
:102B3E001200016E0104D8A4A7EF15F0A9EF15F04D
:102B4E00CEEF15F082500F0B0F0AD8B4B1EF15F07F
:102B5E00B3EF15F0C0EF15F02C50D8B4B9EF15F057
:102B6E00BBEF15F0C0EF15F02C6A82500F0BD9EFAA
:102B7E0015F082500F0B0F0AD8A4C8EF15F0CAEF4C
:102B8E0015F0D8EF15F0010E2C6ED8EF15F00150A0
:102B9E00D8A4D4EF15F0D6EF15F0D8EF15F0BCEFA2
:102BAE0015F0FF0E1200040EA9EC14F001C00FF088
:102BBE0002C010F0700E0B6E170E0C6E0B500F0243
:102BCE00F3CF0DF0F4CF0EF01002F3500E260C5092
:102BDE000F02F3500E260DC001F00EC002F0030ED0
:102BEE00046E03687BEC16F001C011F002C012F007
:102BFE00000E12BEFF0E136E146E145013100BE166
:102C0E00710E115C170E1258D8A010EF16F012EFBD
:102C1E0016F01AEF16F0700E116E170E126E000EE1
:102C2E00136E000E146E11C009F012C00AF01200DD
:102C3E000F50D96EDA6A0DC001F00EC002F0030E0D
:102C4E00046EE80E036E67EC15F00150300FDF6E68
:102C5E000F50D96EDA6A010ED926046A640E036E1D
:102C6E000DC001F00EC002F067EC15F001C008F0C7
:102C7E0002C009F00B6A0A0E0A6ECCEC14F0085072
:102C8E00300FDF6E0F50D96EDA6A020ED926046A43
:102C9E000A0E036E0DC001F00EC002F067EC15F0C7
:102CAE0001C008F002C009F00B6A0A0E0A6ECCECE5
:102CBE0014F00850300FDF6E0F50D96EDA6A030E23
:102CCE00D9260DC008F00EC009F00B6A0A0E0A6E66
:102CDE00CCEC14F00850300FDF6E0F50D96EDA6A5C
:102CEE00040ED926DF6A1200066A04BE83EF16F0C0
:102CFE0081EF16F089EF16F0036C041ED8B0042A8B
:102D0E00010E066E02BE90EF16F08EEF16F096EFE5
:102D1E0016F0016C021ED8B0022A010E061A086ABD
:102D2E00000E076E03500410D8B4A0EF16F0A2EFF9
:102D3E0016F0CAEF16F0010E056EAAEF16F0D89037
:102D4E0003360436052A04AEAFEF16F0B1EF16F0D7
:102D5E00A6EF16F0D890073608360350015C0450E3
:102D6E000258D8A0BDEF16F0BFEF16F0C4EF16F064
:102D7E000350015E0450025A0780D8900432033289
:102D8E00052EB1EF16F00650D8B4D0EF16F0D2EFF4
:102D9E0016F0D6EF16F0076C081ED8B0082A07C03A
:102DAE0001F008C002F0120031EC14F0DAEC15F06C
:102DBE0009C01FF00AC020F065EC17F0156E155013
:102DCE00256E266A1FC00DF020C00EF0160E0F6E77
:102DDE001FEC16F0066A300E056E160E076E050E07
:102DEE00086E30EC15F0226A000E216E214A222A5E
:102DFE0022BE0BEF17F0E80E215C030E2258D8A06E
:102E0E000BEF17F00DEF17F0FDEF16F02550261013
:102E1E00D8A414EF17F016EF17F020EF17F01B0ED3
:102E2E00016EF70E026E2F0E036EFEEC14F045EFE0
:102E3E0017F025042610D8A427EF17F029EF17F066
:102E4E0033EF17F01B0E016EEF0E026E2F0E036E98
:102E5E00FEEC14F045EF17F0020E25182610D8A43C
:102E6E003BEF17F03DEF17F045EF17F01B0E016E1D
:102E7E00F30E026E2F0E036EFEEC14F0066A500E69
:102E8E00056E1B0E076E040E086E30EC15F0246AEC
:102E9E00000E236E234A242A24BE5FEF17F0E80E9D
:102EAE00235C030E2458D8A05FEF17F061EF17F0E4
:102EBE0051EF17F0DDEF16F0FEEF17F0010EA0EC5C
:102ECE0015F0046E0E0E0418D8A470EF17F072EF02
:102EDE0017F074EF17F0010E2B6E0D0E0418D8A418
:102EEE007BEF17F07DEF17F07FEF17F0020E2B6ED2
:102EFE000B0E0418D8A486EF17F088EF17F089EFA1
:102F0E0017F02B6A2B04D8A48FEF17F091EF17F060
:102F1E00BEEF17F0819E819C2950026E2A50036EDF
:102F2E00294A2A2A03BEA5EF17F0035009E1640EC1
:102F3E00025CD8A0A5EF17F0A7EF17F0F5EF17F08A
:102F4E002A6A000E296E81A0AFEF17F0B2EF17F0CC
:102F5E008180B3EF17F0819081A2B8EF17F0BBEF2D
:102F6E0017F08182BCEF17F08192F5EF17F0020E89
:102F7E002B18D8A4C5EF17F0C7EF17F0F4EF17F022
:102F8E00819281902750026E2850036E274A282A7C
:102F9E0003BEDBEF17F0035009E1640E025CD8A00C
:102FAE00DBEF17F0DDEF17F0F5EF17F0286A000EE4
:102FBE00276E81ACE5EF17F0E8EF17F0818CE9EFA3
:102FCE0017F0819C81AEEEEF17F0F1EF17F0818EC6
:102FDE00F2EF17F0819EF5EF17F0816A2B50120079
:102FEE00003C2D2D002D2D3E004F464600005AEF81
:032FFE0014F001CB
:020000040020DA
:08000000FFFFFFFFFFFFFFFF00
:020000040030CA
:0E000000FF071F1FFF8285FF0FC00FE00F409C
:00000001FF
