:020000040000FA
:04000000FEEF17F008
:100600000000010EADEC04F0026E0E0E0218D8A42C
:100610000CEF03F00EEF03F033EF03F04E0E221851
:10062000D8A415EF03F017EF03F01BEF03F0310E22
:10063000226E30EF03F0300E226421EF03F023EF3F
:1006400003F02EEF03F0360E226029EF03F02BEFBC
:1006500003F02EEF03F0222A30EF03F0520E226E49
:1006600022507BEF03F00D0E0218D8A43AEF03F0EE
:100670003CEF03F061EF03F0310E2218D8A443EFF2
:1006800003F045EF03F049EF03F04E0E226E30EF1A
:1006900003F0520E2218D8A450EF03F052EF03F0EB
:1006A00056EF03F0360E226E30EF03F0310E226467
:1006B0005CEF03F05EEF03F045EF03F0220630EF4E
:1006C00003F00B0E0218D8A468EF03F06AEF03F0F2
:1006D0006FEF03F04E0E226E4E0E7BEF03F0070E0F
:1006E0000218D8A476EF03F078EF03F030EF03F0B0
:1006F000520E226E520E1200066A04BE84EF03F000
:1007000082EF03F08AEF03F0036C041ED8B0042AD2
:10071000010E066E02BE91EF03F08FEF03F097EF2C
:1007200003F0016C021ED8B0022A010E061A086AF4
:10073000000E076E03500410D8B4A1EF03F0A3EF2E
:1007400003F0CBEF03F0010E056EABEF03F0D89092
:1007500003360436052A04AEB0EF03F0B2EF03F01F
:10076000A7EF03F0D890073608360350015C045019
:100770000258D8A0BEEF03F0C0EF03F0C5EF03F0BE
:100780000350015E0450025A0780D89004320332AD
:10079000052EB2EF03F00650D8B4D1EF03F0D3EF3B
:1007A00003F0D7EF03F0076C081ED8B0082A07C083
:1007B00001F008C002F0120005EC06F071EC04F044
:1007C00009C01BF00AC01CF001EC03F01D6E1BC039
:1007D0000DF01CC00EF0130E0F6E30EC04F0066A24
:1007E000100E056E130E076E040E086E20EC05F059
:1007F0001F6A000E1E6E1E4A1F2A1FBE09EF04F05C
:10080000E80E1E5C030E1F58D8A009EF04F00BEF92
:1008100004F0FBEF03F0470E176E1DC018F0196AC5
:10082000066A200E056E170E076E030E086E20EC8A
:1008300005F0216A000E206E204A212A21BE2AEFEF
:1008400004F0E80E205C030E2158D8A02AEF04F033
:100850002CEF04F01CEF04F0DEEF03F0FEEF17F0D6
:100860000F50D96EDA6A0DC001F00EC002F0046AB2
:10087000640E036EE7EC04F00150300FDF6E0F5092
:10088000D96EDA6A010ED926046A0A0E036E0DC00B
:1008900001F00EC002F0E7EC04F001C008F002C065
:1008A00009F00B6A0A0E0A6E57EC05F00850300F7B
:1008B000DF6E0F50D96EDA6A020ED9260DC008F02D
:1008C0000EC009F00B6A0A0E0A6E57EC05F00850CC
:1008D000300FDF6E0F50D96EDA6A030ED926DF6A49
:1008E0001200040E89EC05F001C00DF002C00EF0FC
:1008F000C80E0D02F3CF0BF0F4CF0CF00E02F35044
:100900000C260BC001F00CC002F0030E046E03684D
:100910007CEC03F001C00FF002C010F0000E10BE1E
:10092000FF0E116E126E12501110101009E1C90E57
:100930000F5CD8A09EEF04F0A0EF04F0A8EF04F045
:10094000C80E0F6E000E106E000E116E000E126EAD
:100950000FC009F010C00AF01200016E0104D8A403
:10096000B4EF04F0B6EF04F0DBEF04F082500F0BAD
:100970000F0AD8B4BEEF04F0C0EF04F0CDEF04F0DE
:100980002350D8B4C6EF04F0C8EF04F0CDEF04F064
:10099000236A82500F0BE6EF04F082500F0B0F0A10
:1009A000D8A4D5EF04F0D7EF04F0E5EF04F0010E82
:1009B000236EE5EF04F00150D8A4E1EF04F0E3EF7B
:1009C00004F0E5EF04F0C9EF04F0FF0E1200066A30
:1009D000000E056E03500410D8B4F1EF04F0F3EFED
:1009E00004F01BEF05F0010E076EFBEF04F0D8904A
:1009F00003360436072A04AE00EF05F002EF05F0D7
:100A0000F7EF04F0D890053606360350015C045029
:100A10000258D8A00EEF05F010EF05F015EF05F025
:100A20000350015E0450025A0580D890043203320C
:100A3000072E02EF05F005C001F006C002F012001B
:100A40000F01436B446B05C001F006C002F0CAEC15
:100A500005F008C045FF460E0C6E0F0E0D6E0F6AB6
:100A6000000E0E6E42EF05F007500E24D96EDA6AC2
:100A70000E500C24E16E0F500D20E26EDFCFE7FF29
:100A80000E4A0F2A0850096E0A6A09500E5C0F5070
:100A9000800A0B6E0A50800A0B58D8A052EF05F05E
:100AA00054EF05F034EF05F00F01408712000A50B3
:100AB0000B10D8B45EEF05F060EF05F084EF05F0A1
:100AC000010E0C6E68EF05F0D8900A360B360C2A32
:100AD0000BAE6DEF05F06FEF05F064EF05F00A5017
:100AE000085C0B500958D8A078EF05F07AEF05F0B4
:100AF0007EEF05F00A50085E0B50095AD8900B3271
:100B00000A320C2E6FEF05F008C008F009C009F09A
:100B10001200076E07C003F0D8900336D890033652
:100B2000C250C30B0310C26EC282C2B29AEF05F06C
:100B30009CEF05F095EF05F0C350C4CF03F0046AB5
:100B400003C004F0036A0310056E0450066E05C06E
:100B500001F006C002F01200939493861F0E6F16E8
:100B60006F8E800E6E18D8A4B8EF05F0BAEF05F0BE
:100B7000B1EF05F0776AE10E706E1B0E716E030E19
:100B8000726E0D01D46B1F0E6F166F50606A608A13
:100B9000608C120001C003F0070E0316050E046EF0
:100BA000D8900336042ED0EF05F003500F01426FAA
:100BB00001C003F002C004F0D89004320332D89090
:100BC00004320332D890043203320350416F1200D2
:100BD000200EF66E0C0EF76E000EF86E0900F5CFC3
:100BE00022F00900F5CF23F00001DCEF03F0C08E06
:100BF000C09AC088C096C090C082C094C292C19A68
:100C0000C198C46AC36AC2801200F7EC05F00CEC0C
:100C100006F0ACEC05F0120094500F09946E12002F
:020C20004E0183
:042FFC00E8EF05F005
:020000040020DA
:08000000FFFFFFFFFFFFFFFF00
:020000040030CA
:0E000000FF071F1FFF8285FF0FC00FE00F409C
:00000001FF
